:020000040800F2
:10000000D806002089390008D1330008D53300080C
:1000100000000000000000000000000000000000E0
:10002000000000000000000000000000D9330008BC
:100030000000000000000000DB330008DD33000892
:100040007315000800000000C71D00080B220008FF
:10005000B33600083B3700088D370008FD3800082C
:10006000000000004B39000857390008A13900088A
:10007000A3390008A5390008A739000800000000CE
:10008000473500080000000000000000A939000802
:1000900000000000AB390008AD390008AF39000896
:1000A000B1390008B3390008B539000857350008E0
:1000B00059350008000000000000000000000000AA
:1000C00000B500690840884201D1012000E000200D
:1000D00000BDF8B500252E00474C80273F023900AF
:1000E0002000FFF7EDFF002812D1012343480178DB
:1000F0001A000A40D2B2002A0AD1414A11780029D6
:1001000006D11900117001781A000A4302701E000E
:1001100039002000FFF7D4FF012802D12900384818
:1001200001708027FF0139002000FFF7C9FF002878
:1001300014D1012331480178C9B2C9081A000A4014
:10014000D2B2002A0AD12F4A1178002906D11370A1
:10015000017808220A4302700420060039002000BA
:10016000FFF7AEFF012801D12648057008212000C5
:10017000FFF7A6FF00280ED120480178C9B2490830
:100180000A00D207D20F002A05D1022201781143BA
:10019000017016002CE008211B48FFF791FF002892
:1001A0000FD116480178C9B289080A00D207D20FC8
:1001B000002A06D1017804220A43027003200600B7
:1001C00016E0802189012000FFF77AFF00280FD177
:1001D0000A4801780A00D2B212091100C907C90FF2
:1001E000002905D102781021114301700520060075
:1001F0003000C0B2F2BD00000004005098020020A0
:100200009F020020A0020020000C005070B50500E5
:100210000C0016003100C9B2012001F0A0F8210045
:10022000C9B2022001F09BF82900C9B2032001F0F5
:1002300096F870BDF8B50024B148047080256D01B2
:100240002900B048FFF73CFF012806D1AE48056001
:1002500080200001AD49086005E080210901AA481D
:100260000160AA480560AA48017801290BD000D294
:100270007FE1032900D18CE059D3052900D100E1A9
:1002800000D2BBE075E1BB4A117801291BD00229DD
:1002900004D003290CD0052919D034E01470B648D5
:1002A0000178491C01700178182900DB04702AE0EC
:1002B0001470B1480178491E01700178182901DBDA
:1002C000172101701FE01470022101701BE01470EF
:1002D00004210170A948042102788A1A19214A438D
:1002E0000270A74904230A789A1A19235A430A70FC
:1002F0000278002A01D1642202700878002801D116
:1003000064200870FFE701209E4908700A249E4D72
:10031000994E3078210001F0ABF828703078210038
:1003200001F0A6F86970EC70E878A87021E1914AB4
:100330001178012918D01BD303290AD018D21470C0
:1003400092480178491C017001783C2900DB047057
:100350000EE014708D480178491E017001783C2927
:1003600001DB3B21017003E0147003210170FFE702
:10037000012184480170854C0A25834E207829008C
:1003800001F076F8B0702078290001F071F8F17072
:10039000EFE07C480078012818D10A277A4D764E84
:1003A0003078390001F064F828703078390001F0B5
:1003B0005FF86970754E3078390001F059F8A8700F
:1003C0003078390001F054F8E97008E00A206E49ED
:1003D00002004A704A780A70C870C8788870654D03
:1003E0002878012809D100226848017862480078FD
:1003F000FFF70CFF664804702C70BAE05D4A117874
:1004000001291CD01FD303290BD01CD214705B48C8
:100410000178193101700178652901DB192101701A
:1004200011E0147055480178E731017001786529B1
:1004300002DA0178002901D16421017003E014700F
:1004400005210170FFE701214E4801704B4C2078D7
:10045000642804D14C4909208870C8700BE00A2533
:10046000494E2078290001F003F8B0702078290067
:1004700000F0FEFFF17044480B2101700C21417027
:1004800077E03C49087801281CD055D303280BD0CD
:1004900052D20C703A4801781931017001786529FF
:1004A00001DB1921017047E00C7035480178E73114
:1004B00001700178652902DA0178002901D16421EF
:1004C000017039E00C7019272C4D64212878081A26
:1004D000390000F0CDFF2870294E64203178401A91
:1004E000390000F0C5FF307023490878082811DB77
:1004F000087813280EDA2978624801700DE000BFF1
:10050000B6020020000400502804005018040050D7
:10051000CA02002030785B49087001215A480170F6
:100520001B48047028785949087031785848017080
:10053000052158480170FFE7012112480170104C55
:100540002078642804D1104909208870C8700BE015
:100550000A260D4D2078310000F08AFFA87020781F
:10056000310000F085FFE97007480B2101700D2173
:100570004170F1BDC9020020C6020020CB0200205C
:10058000CE020020A402002074020020C702002036
:10059000A9020020F8B54048C078802802D08228FF
:1005A0001CD05EE00A27002400943C4D2E00009AE7
:1005B0003900300000F0B6FFAA202870CC20687007
:1005C0000420A87036480078E8702C71802068718B
:1005D0002C490978491C0843A87142E03148324A45
:1005E000117801700178042902DB00232F490B7078
:1005F0002F4952780A700A78042A02DB02232D4A16
:1006000013702D4A1378002B0ED12C4A1378082B27
:1006100006DB1278132A03DA03781A4A137014E0FF
:100620000B78184A137010E01278012A0DD1244A71
:100630001378082B06DB1278132A03DA0378114AA1
:10064000137002E00B780F4A13700278174802709B
:1006500008781849087005210E4801700120C14929
:100660000870F1BD00B5002802D000BF401EFAE7B7
:1006700000BD1448012101600221016004210160D4
:1006800070470000D1020020AB020020CC02002005
:10069000CF020020B40200207C02002028020020AB
:1006A000D3020020CB0200204C010020CD0200200C
:1006B000CE020020D0020020B5020020C00200209F
:1006C000C3020020180C0050F8B5A74E307800285F
:1006D00002D03078401E30703078012801D100F00F
:1006E0006DFAA2490878002803D00878401E0870E7
:1006F00028E19F480278012A04D1002202700120DB
:10070000984A1070052002000A70002422009949BE
:100710000A70220098490A7098490A78012A00D084
:100720009AE022000A70964D964909780A225143B0
:10073000944A52788918F0312970934F91498978F9
:100740000A2251438F4AD2788918F03139708D4985
:1007500009790A2251438B4A52798A18F0328B491F
:100760000A708B490A78002A07D18A4A9279552A59
:1007700003D101220A70307009E00A78012A06D1FB
:10078000844A9279552A02D022000A703070287863
:10079000182800DBD6E038783C2800DBD2E0287847
:1007A000401D287038781E30387038783C2805DBBA
:1007B0003878C43038702878401C28702878182879
:1007C00002DB2878E83028707348007800281DD1B3
:1007D000724E022000F0FBFD3070714C032000F0DF
:1007E000F6FD2070012000F0F2FD6E4908702878B7
:1007F0002178884203D138783178884225D06348FF
:10080000027839782878FFF701FD1EE0664E002255
:100810003100664800F09BFF6548317801706549FA
:1008200072780A70B378644A13702A78007882422A
:1008300003D138780978884205D05448027839784D
:100840002878FFF7E3FC54480470012049490870F8
:1008500056214C48C17275E058490A78012A71D175
:1008600022000A704B4A11780A2359435378CB1857
:1008700053490B70534F91780A235943D378C918C1
:10088000397011790A2359435379CB184E490B70AB
:100890003F490B78002B06D19379552B03D10122C8
:1008A0000A70307008E00B78012B05D19279552A37
:1008B00002D022000A703070414E3078182841DA98
:1008C00038783C283EDA34480078002818D1334D77
:1008D000022000F07CFD2870314C032000F077FDF1
:1008E000207030782178884203D13878297888427E
:1008F00025D03548027839783078FFF787FC1EE03C
:10090000294D00222900294800F021FF2848297894
:10091000017028496A780A70AB78274A13703278D8
:100920000078824203D138780978884205D0264879
:10093000027839783078FFF769FC17480470012095
:100940000D49087095480178491C01700178062905
:1009500007DB11490A78002A01D101220A7000211F
:100960000170F1BDAB020020B4020020B7020020EC
:10097000B1020020AC020020AD020020AF02002036
:10098000BA020020E8000020BB020020BC020020C8
:10099000A20200204C010020B5020020C10200206C
:1009A000C0020020C202002060020020FC010020E2
:1009B000C3020020C4020020C5020020B2020020B1
:1009C000BD020020BE020020BF02002080B5744896
:1009D0000178012927D173490A78002A23D1724A64
:1009E0001278002A08D1A04A1378704A1370704A0E
:1009F0001378704A137007E09C4A12786B4B1A7098
:100A00006D4A13786B4A13700122994B1A700A7061
:100A100000210A0002709748037880221A4302706E
:100A20009548018068E0017804291BD18021C90123
:100A30009248FFF745FB00285ED1914801780129D3
:100A400002D10021017001E00121017005208D49D2
:100A50000870884A1078802101431170002186486F
:100A6000018049E00078052846D14E4800780028EA
:100A700042D185480178491C01700178042901DBC5
:100A800000210170484A117800290ED1764A117868
:100A9000082906DB1178132903DA01787B480170F5
:100AA00014E001787A48017010E0117801290DD125
:100AB0006E4A1178082906DB1178132903DA0178C8
:100AC0007248017002E00178714801706F48017846
:100AD000704801706E4801786F48017005216948BF
:100AE000017001216D480170624A10788021014334
:100AF000117000216048018001BDFEB50020002179
:100B00006A4603C2083A664E00270CCE083E140E11
:100B10000025002D2BD1ED2C29D103CE083E00223B
:100B2000083657410200120C574B1A7000235D4AD9
:100B300013700200D20703D50122514B1A7001E055
:100B40004F4A137030CE083E002208365741220E1D
:100B5000554B1A7023001B0C544A1370220092B29A
:100B6000120A4C4B1A7023004B4A137015E00020F8
:100B7000464908700221464A11704D4A10704A4A8F
:100B800010704A4A1170474A1070424A1070424A27
:100B900011703B49087000F011F8F7BDB602002053
:100BA000C9020020A9020020B5020020C6020020D0
:100BB000C1020020C7020020C4020020F0B58BB0A3
:100BC00000200A90099008900190009007900690EC
:100BD00000F031FF8021090236480160304C2000CE
:100BE00000F06CF80700344800F068F8C51B6D1C75
:100BF00002200290049705950420039001A902A801
:100C000000F0A6FF20480078000426490978490032
:100C100001431B4800780843ED2109060143009178
:100C2000009A00232100012000F0D0FE08342600A5
:100C30001D48007800061D4909780904014315483C
:100C400000780002084314490C7804432200002372
:100C50003100012000F0BAFE083600F012FF00F06B
:100C6000FCFE0BB0F0BD0000C0020020C30200205B
:100C7000CA020020980200208C02002000040050CC
:100C8000A1020020B4020020D1020020CB020020EB
:100C9000CE020020CC020020CF020020AB020020B8
:100CA00000780008A2020020CD020020D00200201F
:100CB000AA02002010200240FF7F0008F821090648
:100CC0004018C00A70470000F8B5AC480178002908
:100CD0000AD000210170AA4CFFF7FBF920702078A0
:100CE000002801D0FFF772FEA6480078012807D13E
:100CF000FFF7A0FAA44A107880210143117000E2A6
:100D0000A2480078002803D0012800D1F4E0F8E1DF
:100D1000BE480178012906D100210170012000F0B0
:100D200056FBBB490870BA4D2878BA490978884201
:100D300000D1E0E00026B8480670B84800780128E5
:100D400003D10321B648017009E0B64800780128B4
:100D500002D1B348067002E00121B14801700220BF
:100D600000F035FBB0490870BF4C032000F02FFBAA
:100D70002070012000F02BFB2870BC48017800296E
:100D80000AD0BB490978002903D00122B9490A7069
:100D90000CE0B8490E7009E0B7490978002903D082
:100DA0000122B4490A7001E0B2490E702178082985
:100DB00026DB2178132923DA017800290ED0AF49E8
:100DC000AF4A16780B789E4208D008781070012040
:100DD000AC4908701178CB48017034E000780028E5
:100DE00031D1C94BA64801781A7891422BD0197895
:100DF00001700122A3490A700078C249087022E0FC
:100E0000017800290ED0C14EC1490A7833789A4240
:100E100008D03078087001209A4A10700878B949D3
:100E2000087010E0007800280DD1BA4BB84801785E
:100E30001A78914207D0197801700121914A1170F6
:100E40000078B04908708B480078012807D12078D5
:100E50000D2804DB2078F430AF49087002E02078D8
:100E6000AD490870AD4F0A26AB480078310000F05C
:100E7000FFFA3870A8480078310000F0F9FA79706C
:100E800069480078310000F0F3FAB87066480078DD
:100E9000310000F0EDFAF9702878310000F0E8FA3E
:100EA00038712878310000F0E3FA797129785948CF
:100EB0000170207807280DD15B480078297801431C
:100EC000C9B2002906D16E4801788E48017001210F
:100ED0006C480170207813280DD153480078297888
:100EE0000143C9B2002906D18948007885490870B4
:100EF00001206449087004E189480178012900D083
:100F0000FFE0002606704448067002214448017044
:100F10003C27E1242401834D2868210000F0ABFA2E
:100F20000800390000F0A7FA7F4801702868210006
:100F300000F0A1FA0800390000F09DFA7B49087022
:100F40007B4F2868210000F096FA387047480178F6
:100F500000290AD046490978002903D001224549D1
:100F60000A7017E043490E7014E0434909780029DC
:100F70000ED001223F490A700CE000BF9D02002004
:100F8000C9020020A902002098020020B50200201A
:100F900038490E703978082926DB3978132923DA85
:100FA000017800290ED0354C35490A7823789A42C9
:100FB00008D0207808700122324802700978514820
:100FC000017044E00078002841D14F482C490A784C
:100FD00003789A423BD000780870012229480270B9
:100FE00009784848017032E0017800291ED0474C4A
:100FF00047490A7823789A4218D02078087001224D
:101000002048027009783F48017020E0B0020020BB
:10101000C2020020C8020020B6020020AC0200205C
:10102000B8020020AD020020C10200200078002894
:101030000DD1384B364801781A78914207D019788B
:10104000017001220F490A7001782E480170094889
:101050000078012818D138780D2815DB3978F4315B
:101060002D48017013E000BFC00200209B02002049
:10107000A2020020AA020020A1020020CD0200202E
:10108000CB020020AB020020397823480170234CAA
:101090000A25214E3078290000F0EAF920703078D6
:1010A000290000F0E5F96170204E3078290000F049
:1010B000DFF9A0703078290000F0DAF9E1703878B3
:1010C00007280DD13078184909780143C9B20029A1
:1010D00006D1844801780B480170012182480170D3
:1010E000387813280DD130780F4909780143C9B2F7
:1010F000002906D1064800780249087001207A4983
:101100000870F1BDD1020020CC020020D0020020E6
:10111000CE020020CF020020B9020020740200207D
:10112000A802002080020020C5020020C402002086
:10113000C3020020F8B56D480078012879D100215C
:101140006A4801706A4E6B486B496C4A12788A5C37
:1011500004214A438058308069480078002807D02D
:101160003188022048403080318804204840308057
:101170000124644F20003880634D00202880288897
:1011800010281BDA31883888014203D020215F48BB
:10119000016002E020215E4801603220FFF762FA20
:1011A0005A4804603220FFF75DFA594804603888D5
:1011B000400038802888401C2880E0E720003880E4
:1011C0004C494D484D4A12788018407804225043CB
:1011D000085830804A480078002807D0308802211B
:1011E00041403180308804214140318000202880F6
:1011F000288810281BDA31883888014203D0202142
:101200004248016002E02021414801603220FFF79E
:1012100029FA3E4804603220FFF724FA3C48046073
:101220003888400038802888401C2880E0E739480A
:10123000047039480178012914D10024210001707B
:10124000364D2878401C287035480178287881422E
:1012500001D2FFF70EFA2878042803DB0121314878
:1012600001702C702F480178012939D10024210008
:101270000170200027490870FFF7FBF93220FFF7C3
:10128000F1F90225214805603220FFF7EBF92048EB
:10129000056025480178002903D002290DD006D326
:1012A00011E0042221490A6014490D700BE01F4926
:1012B0000D60042211490A7005E001221B490A60F1
:1012C00022000E490A700178491C01700178042936
:1012D00003DB0470012016490870012103480170E6
:1012E000F1BD0000CB020020AB020020A7020020CD
:1012F0008E0200209037000874020020D2020020E5
:10130000990200208A020020920200201804005056
:1013100028040050A50200209A020020D5020020D7
:10132000D1020020A6020020D4020020280C005088
:10133000B002002010B500210C2000F010F80120B0
:1013400000F045F804002000C0B2802806DB3948D0
:1013500000784106490E012000F001F810BDF1B5FA
:1013600082B00C000A252000C0B2290000F080F8ED
:1013700007002000C0B2290000F07AF8684601702A
:101380003800C0B2000169460978411868464170CA
:1013900000F08BFCD02000F0B5FC274E8025356096
:1013A00000F0A3FC6846007A00F0ACFC356000F069
:1013B0009CFC6846407800F0A5FC2048056000F0E1
:1013C00094FC00F082FC1E4800F033FCF7BDF8B539
:1013D000070000F06AFCD02000F094FC164E802438
:1013E000346000F082FC3800C0B200F08BFC346046
:1013F00000F07BFC00F059FCD12000F083FC34604D
:1014000000F073FC00F0A8FC0500346000F06DFCF7
:1014100000F05BFC2900C9B209090A2041432A07F0
:10142000120F88180300DBB23D2B01DB6E2318007E
:10143000C0B2F2BDC20200201804005028040050BF
:1014400010270000F446002804D4494200F013F8A5
:10145000404260474042002905D45FD000F00BF8BD
:10146000404249426047494200F005F8494260471E
:1014700003460B43E6D40022030A8B420BD2030936
:101480008B4219D243088B422ED2411A00D2014618
:10149000524110467047FF2209023FD012068B428C
:1014A00005D3121209028B4201D312120902030959
:1014B0008B4219D300E0090AC3098B4201D3CB0147
:1014C000C01A524183098B4201D38B01C01A524189
:1014D00043098B4201D34B01C01A524103098B428D
:1014E00001D30B01C01A5241C3088B4201D3CB0078
:1014F000C01A524183088B4201D38B00C01A52415B
:1015000043088B4201D34B00C01A5241884200D39A
:10151000401A5241CFD201461046704708B500F03C
:1015200051FC08BD1206130A1A43130C1A4300BFDC
:10153000094205D0830705D00270401C491EF9D12D
:10154000704700001300103906D330B414001500A2
:1015500010393CC0FCD230BC490700D30CC000D5C8
:1015600004C0890002D30280801C002900D50270CB
:101570007047FEE770B5060001242500002E5FD0FD
:101580002920305C002808D10021282031548820EF
:1015900000027060300000F063FC02212920315409
:1015A0003068C068C00643D4CA2130684162532104
:1015B00030684162300000F089F905002800C0B2AF
:1015C00000281DD1306881697A48084031688861F7
:1015D00030688069B168014370690843F16901436B
:1015E0003068816131693068016130680169F06893
:1015F0000004084331680861300000F091F90500EB
:101600002800C0B200280FD130688069C100C90825
:101610003068816130688069716A0143306A0843CB
:10162000B169014330688161FF213068416201E0A6
:10163000002005002800C0B2002801D12920345420
:101640002800C0B270BDF7B582B006002820305C1B
:10165000012801D1022078E0012421002820315402
:10166000022129203154CA21306841625321306857
:101670004162300000F02AF9694608706846007837
:10168000002854D10498002821D130688069400690
:1016900002D400210398C1700398007800F06CF91F
:1016A00007000398407800F067F9050003988078F8
:1016B00000F062F9FFB23904EDB22A020A43C0B267
:1016C00010430399C97889050143019115E03068F9
:1016D0008069400602D400210398C1700398007805
:1016E000000403994978090201430398807808436C
:1016F0000399C9788905014301910199654808401A
:1017000031680860306881696348084031688861E1
:10171000306881690398C0680843039909690143E7
:1017200030688161300000F0FBF869460870FF21E5
:101730003068416268460078002801D1292034547D
:101740000021282031546846007805B0F0BDF8B576
:1017500004000D0017002068806868602068006938
:101760004004400CA860206800684A4E06403000E3
:10177000000C8006800E28707F20310A01406970BD
:1017800031000840A870B10D0800C007C00FE87014
:10179000002F0BD1287800F0FEF82870687800F050
:1017A000FAF86870A87800F0F6F8A8700020F2BD8A
:1017B00000000000BFFF8FFBF7B506002820305C5B
:1017C000012801D1022063E001273900282031548B
:1017D000022129203154029800280AD1019840782A
:1017E000C00606D501984178EF2008400A300199DB
:1017F00048700298002819D10198C07800F0BCF810
:1018000005000198407800F0B7F80400019880784E
:1018100000F0B2F8EDB22904E4B222020A43C0B2E9
:101820001043019909784C0304430DE00198C078F6
:10183000000401994978090201430198807808431E
:10184000019909784C030443CA213068416253214D
:1018500030684162300000F039F805002800C0B25D
:10186000002807D10D49214030684160300000F068
:1018700057F80500FF21306841622800C0B20028F7
:1018800001D1292037540020282170542800C0B2EB
:10189000FEBD00007F7F7F00FFFFFBFF3FFFFF00DB
:1018A00038B5040041492068C16000F00DFB050017
:1018B0002068C068800607D400F006FB411B3C4846
:1018C0008142F5D3032000E0002032BDF8B50600C8
:1018D000002440253068C068284000281CD13068AA
:1018E000C168802008433168C86000F0EDFA070045
:1018F0003068C068284000280ED12000C0B20328FC
:101900000AD000F0E1FAC11B29488142F0D303213B
:101910000C0029203154EBE72000C0B2F2BD0000DA
:10192000F8B507000026234A10688021884310601C
:101930002024214D28682040002809D13800FFF7D5
:10194000AFFF002814D00321292039540E000FE0E6
:1019500029682020814329603800FFF7A1FF002873
:1019600003D00321292039540E00286804432C6039
:101970003000C0B2F2BD000000B501000023080035
:101980000200D2B20A2A02D35B1CF630F8E71A0131
:101990001043C0B200BD0100C9B209090A22514377
:1019A0000007000F0818C0B2704700005F00010078
:1019B000E90300000C2800401828004008B4024B3E
:1019C0009C4608BC6047C04609000020F3B581B0C2
:1019D0000CB4574D2878012801D1022029E00120BC
:1019E000287000246C60FA27BF00380000F05EF811
:1019F00006003000C0B2002818D10398012806D193
:101A000068460CC80838049800F085F805E0684678
:101A100003C801000498FFF7D1FF380000F046F832
:101A20000600444A10680399884310602C70300007
:101A3000C0B205B0F0BD00B500203E490A68002ADA
:101A400009D53F4A3F4B13603F4B1360096800299B
:101A500001D501210800C0B200BD10B50124FA2053
:101A6000800000F023F8334A106880210906014302
:101A700011601068002801D5002004002000C0B2C9
:101A800010BD10B50124FA20800000F00FF880206E
:101A9000C005284A116801431160116808400028F8
:101AA00001D0002004002000C0B210BDF8B506002F
:101AB00000F00AFA040080277F02204D2868384091
:101AC00000280AD00020C0438642F6D000F0FCF97E
:101AD000001BB042F1D303201CE0296816480840DF
:101AE00000901A4828600098002804D000991048F7
:101AF000416001200EE0286840030AD50020C04361
:101B00008642F8D000F0E0F9001BB042F3D3032086
:101B100000E00020F2BD30B4064D296801240C43DA
:101B20002C600260BFF36F8F011D0B6030BC7047EB
:101B30004402002014200240FA83000010200240DA
:101B40000820024023016745AB89EFCDFB830000ED
:101B5000F2B505002E480078012801D1022042E0AC
:101B600001212B480170002629484660FA20800098
:101B7000FFF79CFF07003800C0B200282FD10420D7
:101B800068602868042808D1686800F02DF8FA20F9
:101B90008000FFF78BFF070021E00021C943009878
:101BA0000160A8680400A968E8680818844211D296
:101BB0002100686800F020F8FA208000FFF776FF27
:101BC00007003800C0B2002802D00098046001E08D
:101BD000641CE8E70F4A10680221884310600C4833
:101BE00006703800C0B2F2BD0A4B1968014380226A
:101BF00052020A431A60704730B4064A1468064B12
:101C00002340CD001D43054C2C43146030BC70476D
:101C1000440200201420024007E0FFFF0200010000
:101C200000B500690840884201D1012000E0002091
:101C300000BD80B50100481E002908D00421009194
:101C400000990029F6D00099491E0091F8E701BDDE
:101C5000F8B586B0C02000900120019002210291C9
:101C6000039004906946534800F091F9524D0020CA
:101C70002880524F80243C6080214E48FFF7D0FFDF
:101C800000280DD1288808280ADA40264C4806602A
:101C90000120FFF7CEFF3E602888401C2880EBE73C
:101CA0003C604020386007B0F0BD70B543488026E6
:101CB0000660402404600120FFF7BBFF404D2E600A
:101CC0000120FFF7B6FF2C6070BD70B53C48802640
:101CD0000660402404600120FFF7ABFF374D2C6005
:101CE0000120FFF7A6FF2E6070BD10B540243348D9
:101CF00004600120FFF79DFF314804600120FFF7D9
:101D000098FF10BDF1B5802600242000C0B208283D
:101D10001BDA2B4F40253D600120FFF78AFF684604
:101D20000078304203D080212448016001E0802007
:101D300038600120FFF77DFF204805600120FFF794
:101D400078FFF6B27608641CDFE740211C4801608A
:101D50000120FFF76EFFF1BDF8B580210D00174897
:101D60000160002427002000C0B2082818DA4026AD
:101D7000134806600120FFF75CFF10480660012051
:101D8000FFF757FF80210B48FFF74AFF012800D1DA
:101D90002F430120FFF74DFFEDB26D08641CE2E711
:101DA0004021074801600120FFF743FF3800C0B21F
:101DB000F2BD000000040050920200201804005000
:101DC000280400507047FEE738B586B0142100247F
:101DD000220001AD2800FFF7A5FB042122006D467B
:101DE0002800FFF79FFB344D34482860AC607F200B
:101DF000E860FF2028616C61AC61EC618020C00567
:101E000028626C622800FFF7B5FB002801D000F0C3
:101E1000F9F901A8210001702100417021008170B1
:101E2000029404940594002201A92800FFF70BFCFA
:101E3000002801D000F0E6F9012168460A0002708E
:101E40000A00427081702421C17000226946280076
:101E5000FFF7B2FC002801D000F0D4F907B030BD84
:101E600030B587B004001821002201AD2800FFF72B
:101E700059FB2168114881421CD1802080020190C9
:101E800080208000069001A800F0C0F9002801D051
:101E900000F0B8F90A4A1068802109020143116074
:101EA0008020C000074A1168014311601168084092
:101EB0000090009807B030BDFC01002000280040D1
:101EC0005C1002403C10024001480068704700BFAF
:101ED0008402002030B403680D004D4303246543A1
:101EE000AB430C004C4354431C43046030BC70476C
:101EF00010B444688C430B0053432343436010BC2D
:101F0000704730B483680D004D4303246543AB43F1
:101F10000C004C4354431C43846030BC704730B4C5
:101F2000C3680D004D4303246543AB430C004C4391
:101F300054431C43C46030BC704730B4036A0D0086
:101F40004D434D434D430F246543AB430C004C437D
:101F50004C434C4354431C43046230BC704730B480
:101F6000446A0B0A0D0A6B430D0A6B430D0A6B435F
:101F70000F256B439C430B0A0D0A6B430D0A6B4301
:101F80000D0A6B4353432343436230BC7047F8B59B
:101F900006000C0000252068E840002832D02168A7
:101FA0000120A84008400700002F29D060680128C0
:101FB00002D06068022809D1A26839003000FFF71A
:101FC000A0FFE26839003000FFF792FF2269390074
:101FD0003000FFF7A4FF606802280CD1FF2F05D85E
:101FE000626939003000FFF7A8FF04E06269390038
:101FF0003000FFF7B4FF626839003000FFF76AFF76
:102000006D1CC8E70020F2BD6E4A106880214902AD
:102010000143116070476B48016808008003C00FDE
:102020007047694A10680121014311607047664892
:10203000016808008007C00F7047644B19680722C9
:102040009143014319607047604801683820084097
:1020500070475E4B19685E4A0A4002431A60704737
:102060005A4B19685B4A0A4002431A607047554A46
:10207000106880214904014311607047514801688C
:1020800008008001C00F704770B4534C2668534D50
:10209000354005430D4316022E431E43266070BC97
:1020A00070474D4A1068802149050143116070470F
:1020B0004B4B196807229143014319607047484808
:1020C00000684007400F7047464A10688021490069
:1020D00001431160704780B500F024F800F075F9F5
:1020E00041480178002903D000210170FEF7ECFA85
:1020F0003E480178012910D101213D4A1170052384
:102100003C4A1370002202703B48C078812802D1FB
:102110003A48017001E0FEF73DFAFEF7D5FDFFF702
:1021200009F8DDE780B500F027FA00F00DF800F0BF
:1021300046FAFFF78DFDFFF7FDF8FFF745FE00F0CB
:1021400077FB00F0E1FB01BD80B50220FFF7B0FF97
:10215000FFF7B5FF0228FBD1FFF756FFFFF75BFF44
:102160000128FBD1FFF75DFFFFF761FF0128FBD1DD
:10217000FFF7AAFF8023DB05102200210320FFF7D1
:1021800083FFFFF774FFFFF78CFFFFF777FF01284E
:10219000FBD10020FFF75DFF0220FFF74EFFFFF7A6
:1021A00053FF1028FBD10020FFF75AFF144800F01E
:1021B00003FC032000F006FC002801D000F022F808
:1021C00001BD0000001002406010024008100240F3
:1021D000FFF0FFFFFF8FFFFF0C1002408C80FF1FFE
:1021E0000020024000700040A3020020AE02002048
:1021F0009B020020B30200207C020020B2020020DB
:102200000090D00300B572B6FEE7FEE7F8B584B0E3
:10221000060000200700020069460A703168890341
:1022200070D56946487080204005584C21680140AF
:10223000002909D1216801432160216808400390E9
:102240000398012168464170514D29688020400063
:1022500008432860FFF738FE02902868C00507D4BD
:10226000FFF732FE0299401A0328F6D30320070035
:102270003800C0B200283BD1464D2968C0208000FC
:10228000084001900198002812D001987169884295
:102290000ED02968404808400190286880214902F2
:1022A0000143296028683D49014029600198286060
:1022B0000198C0070ED5FFF707FE02902868800737
:1022C00008D4FFF701FE0299411A35488142F5D33F
:1022D000032007003800C0B2002806D129682E4824
:1022E000084071690143296004E06846077001E015
:1022F0006846077068464078012803D1216829485C
:10230000084020603078C00706D5274801680322BE
:10231000914372680A4302603078800606D52248ED
:10232000026822491140B2680A4302608020C0015D
:1023300031680140002911D01B490A6893009B08AD
:1023400032691A430A6032698021C9058A4205D17F
:10235000174B1968802252020A431A603168090536
:102360000FD511490B68134A1A40F36813430B60E9
:10237000F168814205D10E4A10688021490201436B
:1023800011606846007805B0F0BD00003C100240C6
:10239000007000405C100240FFFCFFFFFFFFFEFFEB
:1023A00089130000FFFFFFEF54100240FFCFFFFF33
:1023B0000C100240FF3FFFFF00B500690840884253
:1023C00001D1012000E0002000BDF8B5FEF795FB2B
:1023D0008021C9015648FFF7EFFF002800D094E0A4
:1023E0000126544C3000208053485449544A1278F6
:1023F0008A5C04214A43815852480180524D00278B
:1024000038002880288810281CDA4E480188208847
:10241000014203D020204D49086002E020204C49B1
:1024200008604A480660C820FEF71CF94848066064
:10243000C820FEF717F92088400020802888401C1B
:102440002880DFE73E480078401C3D490870300096
:10245000208038002880288810281CDA3948018814
:102460002088014203D020213848016002E0202169
:102470003748016035480660C820FEF7F3F8344855
:102480000660C820FEF7EEF82088400020802888EB
:10249000401C2880DFE7FEF7ECF80A20FEF7E2F8A0
:1024A00002242A4804600A20FEF7DCF82848046069
:1024B00028480178012904D13900017039002648E3
:1024C000018026480178002903D002290DD007D3C6
:1024D00010E0042222490A603100194A117009E013
:1024E0001F490C6016490C7004E01D490E6039004C
:1024F000134A11700178491C01700178032900DA30
:1025000066E707701748067062E700200100164A68
:1025100011701649087001200100154A1170010060
:102520000C4A117006490870102112480160F1BD73
:10253000000400508A020020903700087402002036
:10254000D20200208E0200209202002018040050C7
:1025500028040050AB0200208C020020D40200208E
:10256000280C0050B0020020B6020020B502002066
:10257000A70200202800005010B50024094A106866
:102580008021490001431160032000F01BFA00285C
:1025900002D00120040001E000F046FA2000C0B2A1
:1025A00010BD00000020024081B0584A116801436C
:1025B0001160116801400091009901B07047F8B5B1
:1025C00086B01821002422006D462800FEF7AAFFDD
:1025D0002020FFF7E9FF0120FFF7E6FF0220FFF7C9
:1025E000E3FF0820FFF7E0FF022700970125019590
:1025F0000294039404946946A020C005FFF7C7FC29
:102600008020400100900195029403940494404E70
:1026100069463000FFF7BBFC0095019502940395D5
:10262000049469463B48FFF7B2FC00970195029479
:102630000395049469463748FFF7A9FC04200090ED
:10264000019502940395049469463248FFF79FFC74
:10265000802000010090019502940394049469463F
:102660003000FFF794FC00950195029403940494C4
:1026700069463000FFF78BFC0097019502940394A4
:10268000049469463000FFF782FC10200090019509
:102690000294039404946946A020C005FFF777FCD8
:1026A0002020009001950294039404946946300020
:1026B000FFF76DFC082700970194049569461548BB
:1026C000FFF765FC00970194049569463000FFF719
:1026D0005EFC8020800100900194049569463000E2
:1026E000FFF755FC8020C0010090019404956946D5
:1026F0003000FFF74CFC802000020090019404950C
:1027000069463000FFF743FC07B0F0BD34100240CB
:1027100000040050000C005000B5010049B200292F
:1027200005D40121C206D20E9140704A116000BD4D
:10273000F0B5020052B2002A1CD403276C4A0300F1
:102740005BB29C0804235C431359FF253C00044002
:1027500008267443A540AB438C01E4B2074008252A
:102760006F43BC401C4303005BB29D0804235D43E0
:10277000545122E00F245F4A032305006DB2254027
:10278000083DAD0804267543AC4605006DB22C40EB
:10279000083CA508042465435659FF271D00054041
:1027A00008246543AF40BE438C01E4B203400825D2
:1027B0006B439C40344365465451F0BD81B04E4A52
:1027C000116801431160116801400091009901B046
:1027D000704781B0494A1168014311601168014096
:1027E0000091009901B07047026801211143016016
:1027F0007047426842491140416082682A218A43F9
:1028000082607047C16908008002C00F7047C169CB
:1028100008004002C00F7047EFF31081012282F3DD
:102820001088036820221A43026081F310887047E1
:10283000F8B58EB020210024220006AD2800FEF756
:1028400071FE182122006D462800FEF76BFE8020E5
:102850008002FFF7B3FF0120FFF7BBFF04200090C9
:102860000226019602940394049401250595A0275D
:10287000FF0569463800FFF78AFB082000900196A3
:10288000029403940494059569463800FFF77FFB92
:1028900000211C20FFF74CFF1C20FFF73DFF069492
:1028A000E12040020790089409940A940C200B90B0
:1028B0000C940D94134C06A9200000F025F920007B
:1028C000FFF797FF2000FFF78FFF2000FFF79AFF29
:1028D0000028FAD02000FFF79AFF0028F5D020004A
:1028E000FFF79AFF0FB0F0BD0000000000E100E02C
:1028F00000E400E01CED00E03C1002403410024017
:10290000FFB7FFFF0044004030B587B0102100241E
:10291000220003AD2800FEF705FE0C2122006D46C3
:102920002800FEF7FFFD214D214828603F20686008
:10293000AC606320E8602C61AC61280000F03AF9DB
:10294000002801D0FFF75EFC80204001039003A91E
:10295000280000F063FA002801D0FFF753FC009430
:1029600002946946280000F069FB002801D0FFF7B7
:1029700049FC280000F050F907B030BD1CB5040038
:1029800021680B48814210D102200A4A1168014394
:10299000116011680840009000980022002110206A
:1029A00000F0F3FB102000F0FAFB13BDB001002093
:1029B000000400403C1002400149086070470000DC
:1029C0000400002038B505000024144908780028C8
:1029D0001ED0FA2080000978FEF74DFD0100104856
:1029E0000068FEF748FD00F0E1FB00280DD1042D42
:1029F00008D2002229000020C04300F0C6FB09488D
:102A0000056007E00120040004E00120040001E06B
:102A1000012004002000C0B232BD00BF4C000020E5
:102A2000040000200000002081B00120094A116844
:102A30000143116011680840009000988020400513
:102A4000054A116801431160116808400090009820
:102A500001B07047401002403C100240016808007D
:102A6000C007C00F7047C26A0F239A430B009BB286
:102A70001A43C26270474368474A1A400A43426099
:102A800070478368454A1A400A4382607047FEB522
:102A900006000F001400089D0C2C34D2002D32D0FB
:102AA00002998020000281421DD138003C4B210058
:102AB000C9B2042251435958FEF7DDFC02214843B4
:102AC000690840182900FEF7D6FC80B200900099F2
:102AD00034480840009949084907490F08430190C4
:102AE0000198F0600FE038002D4B2100C9B204229C
:102AF00051435958FEF7BFFC690840182900FEF7FA
:102B0000BAFC80B2F060F7BDF0B585B006000C00ED
:102B10000127002501953000FFF7A0FF002836D1DE
:102B2000316823480840A16801432069084361696E
:102B30000143E06908433060E1683000FFF79BFF24
:102B4000A1693000FFF79DFF1748864204D103209A
:102B500000F084FB019007E01448864204D102A8EB
:102B600000F06EFB04980190019800280BD060687B
:102B7000002808D02F0060680090E369226801995E
:102B80003000FFF784FF21683000FFF76CFF38004A
:102B9000C0B205B0F0BD0000FFCFFFFFFFFCFFFF9C
:102BA0004C380008F0FF00000038014000440040AD
:102BB000F369FFEF10B50400002C01D101202AE0D9
:102BC0003D20205C002805D100213C20215420001C
:102BD000FFF7D4FE02213D202154211D206800F082
:102BE000A1F90120482160543E2160543F216054E6
:102BF000402160544121605442216054432160547B
:102C0000442160544521605446216054472160545A
:102C10003D216054002010BD10B501003D20085C2E
:102C2000012801D0012027E002233D200B54012080
:102C30000B68DC6804430B68DC600C680F4B9C423B
:102C400003D00C680E4B9C4210D10B689C680D4B56
:102C500023401A00062A0ED080235B029A420AD033
:102C60000B681B6818430B68186004E00B681B684E
:102C700018430B681860002010BD0000002C0140B4
:102C80000004004007000100F8B506003068C06885
:102C900000903068076902252F421BD00098284019
:102CA000002817D00221C943306801610120307724
:102CB000306880698007800F002803D0300000F062
:102CC0006BFB05E0300000F068FB300000F066FBB5
:102CD00000203077042427421BD000982040002891
:102CE00017D00420C04331680861357730688069A7
:102CF000C02189000140002903D0300000F04CFBC6
:102D000005E0300000F049FB300000F047FB0020F8
:102D1000307708252F421AD000982840002816D076
:102D20000821C9433068016134773068C069800781
:102D3000800F002803D0300000F02EFB05E03000AB
:102D400000F02BFB300000F029FB00203077102131
:102D50000F421BD000980140002917D01021C94311
:102D60003068016135773068C169C0208000084053
:102D7000002803D0300000F00FFB05E0300000F029
:102D80000CFB300000F00AFB0020307701210F42DD
:102D90000AD000980140002906D00121C9433068BB
:102DA0000161300000F0FBFA8220800138400028E9
:102DB00008D00098000605D516493068016130003A
:102DC00000F0EEFAF80508D50098000605D512487F
:102DD00031680861300000F0E4FA40210F420AD067
:102DE00000980140002906D04021C94330680161A4
:102DF000300000F0D7FA20210F420AD0009801409D
:102E0000002906D02021C94330680161300000F05C
:102E1000CAFAF1BD7FDFFFFFFFFEFFFFFEB5040032
:102E20000D000027684607703C20205C012801D176
:102E3000022072E001263C20265402203D216054ED
:102E40002068816835480840354901400191019961
:102E5000206881602968002952D0102950D020298B
:102E60004ED030294CD0402940D050292AD060295A
:102E700032D0702909D080204001814204D08020C6
:102E80008001814210D040E041E0EB686A68A968A7
:102E9000206800F0C0F8206881687720084301901E
:102EA00001992068816032E0EB686A68A96820684F
:102EB00000F0B1F8206881688020C00108432168D3
:102EC000886024E0EA686968206800F075F850219D
:102ED000206800F097F81AE0EA686968206800F056
:102EE0007DF86021206800F08DF810E0EA686968DC
:102EF000206800F061F84021206800F083F806E0C7
:102F00002968206800F07EF801E0684606703D20E0
:102F100026543C20275468460078FEBD88FFCEFF2B
:102F2000FF00FFFF10B504681D4A904202D01D4B00
:102F3000984204D170239C4323004C681C43904268
:102F40000BD0184B984208D0174B984205D0174B1E
:102F5000984202D0174B984203D1154B2340CC68BE
:102F60001C4380239C434B69234303608C68C462E9
:102F70000C688462904205D00C4A904202D00D4AFF
:102F8000904201D10A69026301244461026914403C
:102F9000002C03D0046901229443046110BD000099
:102FA000002C01400004004000200040004401408B
:102FB000FFFCFFFF0048014030B4036A056A0124AA
:102FC000A54305628569F024A54314012C430A2515
:102FD000AB430B438461036230BC704730B4036A77
:102FE000056A1024A54305628469124D2540140327
:102FF0002C43A025AB430D011D438461056230BC09
:103000007047000083680A4A1A400A4307231343A3
:1030100083607047000030B48568074C2C400C4337
:1030200014431D022543856030BC7047000000003A
:103030008FFFCFFFFF0FFFFFFF00FFFF70B5020004
:103040003C20105C012801D102202BE001203C2310
:10305000D05402243D23D45413685E6813689B68DF
:10306000114D1468AC4203D1104C34404E682643D5
:103070007024A6430C683443166874601668AE4228
:1030800003D016680A4DAE4206D18025AB431D0021
:103090008B682B431568AB603D25505500253C20BF
:1030A0001554002070BD0000002C0140FFFF0FFFF1
:1030B0000004004000B5010049B2002905D40121F7
:1030C000C206D20E91403C4A116000BDF0B502002C
:1030D00052B2002A1CD40327384A03005BB29C0872
:1030E00004235C431359FF253C0004400826744325
:1030F000A540AB438C01E4B2074008256F43BC40B8
:103100001C4303005BB29D0804235D43545122E03D
:103110000F242B4A032305006DB22540083DAD085E
:1031200004267543AC4605006DB22C40083CA5084A
:10313000042465435659FF271D00054008246543B4
:10314000AF40BE438C01E4B2034008256B439C4072
:10315000344365465451F0BD10B50400611E802013
:103160004004814201D301200EE0611E1548016038
:1031700003210020C043FFF7A9FF0021124801608E
:10318000072112480160002010BD70B505000C0039
:1031900016002100280040B2FFF798FF70BD10B55F
:1031A0000400200040B2FFF785FF10BD10B50400F9
:1031B0002000FFF7D1FF10BD00E100E000E400E0D7
:1031C0001CED00E014E000E018E000E010E000E09A
:1031D0003848016808004005C00F7047364801684C
:1031E00008008007C00F7047344801683820084045
:1031F000704732480168F0200001084070472F48AE
:103200000168E020C001084070472D49096801406D
:1032100000040843704740480068000A4006400E1A
:1032200070473D480068400F400770473A480068C3
:103230008007800F70473848016870200840704749
:1032400010B5040000F03EF82060206800F054F84B
:103250006060606800F062F8A06010BD38B50500DD
:103260000024032D24D12800FFF7CFFF4549401A41
:1032700004D0401E06D0401E0BD012E000F022F811
:10328000040015E0FFF7A4FF012801D13E48040027
:103290000EE0FFF7A3FF012802D180200002040006
:1032A00006E000F00FF800F027F800F037F804000F
:1032B000200032BD001002405C10024008100240A5
:1032C0005410024010B5FFF78FFF082802D01028D5
:1032D00002D004E02D480EE000F030F80BE00120B1
:1032E00015490968C90A4907490F8840040026485A
:1032F0002100FEF7C0F810BD10B50400FFF779FFFC
:103300002349000A0207120F04204243885CC006CA
:10331000C00EC440200010BD0C10024010B50400C7
:10332000FFF76DFF1B49020B04204243885CC00677
:10333000C00EC440200010BD0010024070B5FFF761
:1033400075FF05002800022802D0032802D003E000
:103350000D4C02E00D4C00E00B4CFFF75CFF06004B
:10336000FFF769FF0100664330000909491CFEF7B9
:1033700082F80600FFF755FF410F491C3000FEF7A9
:103380007AF870BD010003000024F40000127A00F6
:10339000D037000800390008704770477047704701
:1033A0007047704770477047C16908008006C00FBA
:1033B00070470121016270470221016270470821B4
:1033C000016270471021016270474021016270471D
:1033D00000B5FEE700B5FEE77047704780B5854849
:1033E0000178002903D00178491E01700BE0C82143
:1033F0000170012180480170804801784906490E1A
:103400000170002101707E480188491C01800288FA
:10341000FF21F6318A4206DB00210180794A1078CB
:1034200001214140117078480188002903D00188AA
:10343000491E018049E0FF21F43101807348017881
:10344000012902D10021017001E0012101707049C0
:103450000978002939D16F49097800292DD002292E
:1034600012D01AD3032930D16B49802212010A608D
:103470000078012804D1802040016849086002E0FA
:1034800080204001086020E080210901624801603D
:10349000802149016148016017E05F4980225201A3
:1034A0000A600078012804D1802109015B4801608D
:1034B00002E080200001086007E0802040015649BA
:1034C000086080210901554801600120020054492B
:1034D0000A7054490A88002A03D00888401E0880D0
:1034E0002EE0514A0A80514908705148007800285E
:1034F00004D150480188491C018002E000214D4858
:1035000001804C480188022902D102224A490A60FE
:103510000288E12109018A4204DB002101800221A5
:103520004648016046480178002903D00178491EC9
:10353000017005E043480178002901D000210170A5
:1035400000F094F801BD80B501213F4801703F486B
:10355000FFF79AFB01BD7047F8B500252F003C4CE2
:103560002000FFF721FF012832D13A4806683000D9
:10357000C0B20A2820D138482900384A127881542C
:10358000374900F07FF80700002832D03F1D354C46
:103590003900200000F08EF8290030480170E07AF0
:1035A000412806D1012002002F490A7020490870E5
:1035B0001FE01F4805701CE02848274A0178565430
:1035C0000178491C01700178642912DB057010E054
:1035D0002000FFF7FAFE2000FFF7F1FE2000FFF7C2
:1035E000EBFE2000FFF7E5FE2000FFF7EBFE194899
:1035F0000668F1BDD60200209D020020980200203E
:10360000940200209902002090020020A4020020D1
:10361000A9020020B802002018040050280400501D
:103620009E02002088020020E7030000A302002081
:103630009C02002096020020280000501800005034
:10364000B30200209B0200209A020020B00100205B
:10365000004400402444004050000020D7020020D5
:1036600098390008E8000020AF02002003480168F4
:10367000034A127889180160704700BF8402002055
:103680004C00002070B50C78002C11D00D0004E027
:10369000761C3178994207D0401C210000F044F894
:1036A000002805D006002A00521C1378002BEFD109
:1036B00070BDFEE731B48B0707D00B780370002B89
:1036C00020D0401C491C8B07F7D1164CE50183071D
:1036D00022D104C9131B93432B4205D104C004C952
:1036E000131B93432B42F9D0FF231A42027009D0D7
:1036F000120A1A42427005D0120A1A42827001D090
:10370000120AC27031BC70470270120A4270120A6B
:103710008270120AC270001D04C9131B93432B420E
:10372000F2D0E1E701010101C9B202788A4203D077
:10373000401C002AF9D100207047FEE70400000079
:103740000024F400F0B5002702000B000C4C2568A3
:103750008026F6022E432660EFF3108472B63D00F9
:10376000EDB2402D05D21D6815601B1D121D7F1C7A
:10377000F5E7044D2D68ED03FBD484F31088F0BD0C
:10378000142002401020024001000000FEE700006B
:10379000F8FD000000F80000D8EF000018FF00005E
:1037A00070FA000078BF0000F8BF000018F80000B1
:1037B000F8FF000078FF000000000000F0010000AA
:1037C000C0FF0000B03B0000F8E30000F88D0000EF
:1037D00000000000000000000000000000000000E9
:1037E00000000000000000000000000000000000D9
:1037F00001000000020000000300000004000000BF
:10380000060000000700000008000000090000009A
:1038100070B40121002213E00368001D0B4202D0A6
:103820004D46EB185B1E1A601B1D241F042CFAD298
:103830001D00A60701D51A80AD1C0C4000D02A70CF
:103840000468001D002CE7D170BC70470100000027
:103850000200000004000000060000000800000054
:103860000A0000000C000000100000002000000012
:1038700040000000800000000001000030B4012181
:103880000EE00368C318446808300C4202D04D466D
:103890002C19641E1D6825601B1D241D121FF9D1E3
:1038A0000268001D002AECD130BC704710B5034AF5
:1038B0007A440832024C7C44A41D03E01C00000042
:1038C0003C00000004E0101D1168511888470200F8
:1038D000A242F8D110BD000039FFFFFF88020000AE
:1038E000500000200000000095FFFFFF5000000086
:1038F0004CFEFFFF0000002000000000FEE700007B
:1039000000000000000000000000000000000000B7
:10391000010000000200000003000000040000009D
:1039200000F00DF8002801D0FFF7C0FF00BF00BF76
:10393000002000BF00BFFEF7CEFB00F002F8012020
:10394000704780B500F002F801BDFEE70746384633
:1039500000F002F8FBE7FEE780B500BF00BF024AB7
:1039600011001820ABBEFBE7260002000548014607
:1039700003B4684680F3098800BF00BF00BF00BFE2
:10398000FFF7CEFFA5EDF5FE01488047014800474F
:10399000B93900086D390008524D432C0000000071
:1039A000FEE7FEE7FEE7FEE7FEE7FEE7FEE7FEE7EF
:0A39B000FEE7FEE7FEE700007047A7
:040000050800396D49
:00000001FF
